:0C0000000C9414010C9400000C940000FF
:10000C000C9400000C9400000C9400000C94000064
:10001C000C9400000C9400000C9400000C94000054
:10002C000C9400000C9400000C9400000C944401FF
:10003C000C9400000C9400000C9400000C94000034
:10004C000C9400000C9400000C9400000C94000024
:10005C000C9400000C9400000C9400000C94000014
:10006C000C9400000C9400000C9400000C94000004
:10007C000C9400000C9400000C9400000C940000F4
:10008C001027E80364000A000100001000011000B2
:10009C0001000000000000003C0000000000000017
:1000AC0002000C004400000000000003000C00449F
:1000BC0001000000000005000200440200000000E6
:1000CC0000000012004403000000000000001400B7
:1000DC00440400000000000200050044050000007C
:1000EC000000080008004406000000000008000999
:1000FC00004407000000000008000A004300000054
:10010C0000000008000B0043010000000000080084
:10011C000C004302000000000008000D0043030027
:10012C000000000008000E0043040000000000085E
:10013C00000F0043050000000000080010004306FB
:10014C000000000000080011004307000000000040
:10015C0008001200410700000000000800130041D5
:10016C00060000000000030007004105000000002D
:10017C00000400070041040000000000000008001B
:10018C004103000000000000000C004102000000D0
:10019C00000000000E004101000000000000000FF4
:1001AC00004100000000000000000A0046070000AB
:1001BC0000000000000D00460600000000000000DA
:1001CC00100046050000000000000011004604006D
:1001DC000A0054696D653A253032643A2530326430
:1001EC003A2530326420533A25303264000080C006
:1001FC0001002D4E414E00494E4600000A000400FD
:10020C009E0033010005A80001003806DC01020045
:10021C004A06FA0101005106FC010000F894EE2791
:10022C00ECBBF1E0F5BFE5BFE0936C008DE0A2E024
:10023C00BB27ED938A95E9F780E090E1A0E0B1E06F
:10024C00ED930197E9F7E8E0F2E08591959100973D
:10025C0061F0A591B59105901590BF01F001059045
:10026C000D920197E1F7FB01F0CF8BBFEFEFEDBFE4
:10027C00E0E1EEBFC0E0D5E00C942202EA93FA93E1
:10028C00EFB7EA93E4ECEDBDE0E0ECBDF4013196A0
:10029C004F01F50131975F01E991EFBFF991E991B8
:1002AC001895A0E10E945103EFEFEABBE7BBE4BB5A
:1002BC00E1BBE2B9E0936100E0E0EFBDE4E0EEBD4C
:1002CC00E4ECEDBDE0E0ECBDE4E0E7BF789408952C
:1002DC000E94420529F40E944C05E129EBBB2DC07C
:1002EC00E234A0E0FA0729F40E945405E129E8BBA6
:1002FC0024C0E334A0E0FA0729F40E945C05E1294C
:10030C00E5BB1BC0E434A0E0FA0729F40E946405A5
:10031C00E129E2BB12C0E534A0E0FA0729F40E94FF
:10032C006C05E129E3B909C0E634A0E0FA0729F429
:10033C000E947405E129A62FEC936CC10E94420522
:10034C0031F40E944C05E095E121EBBB32C0E23464
:10035C00A0E0FA0731F40E945405E095E121E8BBD6
:10036C0028C0E334A0E0FA0731F40E945C05E09564
:10037C00E121E5BB1EC0E434A0E0FA0731F40E9491
:10038C006405E095E121E2BB14C0E534A0E0FA0776
:10039C0031F40E946C05E095E121E3B90AC0E63422
:1003AC00A0E0FA0731F40E947405E095E121A62F34
:1003BC00EC93A881B9811A96E0E0EC932BC11A93C7
:1003CC000A9300E010E000E010E00C31E0E01E07C2
:1003DC0084F522970E947F05E883F983A881B9816F
:1003EC000E94F305E415F50559F412960E94F305E5
:1003FC00E615F70529F4E881F981A285A03009F00A
:10040C0014C0A881B9811A96E1E0EC93A881B98156
:10041C005FDFEAE0F0E0E0933806F0933906E2E0C3
:10042C00F0E00E948705229604C022960F5F1F4FB2
:10043C00CCCF09911991089500E010E032DF00E073
:10044C0010E00C31E0E01E07C4F40E947F050E940E
:10045C008C05EC5FFA4F0E949305ABE0A09FF00176
:10046C00A19FF00DEE5FFA4F0E948C05EA5FFA4FE8
:10047C000E9493050F5F1F4FE4CFEBE3F0E0E8150C
:10048C00F90558F488249924F30131963F01E1E0F1
:10049C00F0E0E0933406F0933506EBE3F0E0E6157C
:1004AC00F70528F466247724F20131962F01E7E052
:1004BC00F0E0E415F50528F444245524F6013196B2
:1004CC006F01E4E6F0E0EC15FD0510F4CC24DD241E
:1004DC0076DFE0913606F0913706E230A0E0FA07BD
:1004EC0099F4E0913806F0913906309729F4E3E05D
:1004FC00F0E00E94870507C0A8E3B6E0ED91FD91FE
:10050C003197FE93EE931FC0E330A0E0FA07D9F4C5
:10051C0000E010E00C31E0E01E078CF4ABE0A09F93
:10052C00F001A19FF00DE65FFA4FA081A13021F4FC
:10053C000E947F05DF0102DF0F5F1F4FEBCFE1E071
:10054C00F0E00E94870568D0E0E0EA93A0E053D089
:10055C00EAE3F6E0FA93EA93EEEDF1E0FA93EA932C
:10056C00F2010E949A05F3010E949A05F4010E947F
:10057C009A05F6010E949A0580E10E94F5046496A2
:10058C00AAE3B6E077D0A4EFB1E00E94D90575CF0D
:10059C00FFCFAA93E881E07111F0C39A01C0C39810
:1005AC00E881E07211F0C49A01C0C498E881E0744B
:1005BC0011F0C59A01C0C598E881E07811F0C69A8F
:1005CC0001C0C6988BE18A95F1F7C29A8BE18A95A6
:1005DC00F1F7C2988BE18A95F1F78BC0AA93A881A9
:1005EC00D8DFE881E295E883A881D3DF88EC90E03E
:1005FC000197F1F77EC0AA93E881F0E0E65BF94F32
:10060C00E081A981AE0FEADFE981E0934E06E88133
:10061C00E0934F0622960895A2E00E949F05ACE05D
:10062C00DDDFA1E00E949F05E0E0E0934F06E09340
:10063C004E060895AA93A881AA3031F0E091500695
:10064C00A0914E06AE1760F0E0E0EA93A0914F0641
:10065C00AF5FA0934F06CFDFA881AA3009F449C041
:10066C00E0914E06EF5FE0934E06C09AA881B6DF8C
:10067C00C0983FC0BA93AA931A93A981BA81ED91FD
:10068C00A983BA831E2FE03019F0A12FD3DFF5CF49
:10069C00188123960895AA93BB9ABC9ABD9ABE9AC8
:1006AC00BA9AB89AB99AC298C098C198E881E0935E
:1006BC005006E058E0934C06E881E054E0934D0678
:1006CC00A4E1B0E00E94D9050E94A5050E94A505F1
:1006DC000E94A505A0E25DDF80E991E00197F1F7AA
:1006EC00A8E27CDFA4E07ADFA5E878DFA6E076DF7D
:1006FC0093DF21960895BA93AA931A930A93AA8129
:10070C00BB8112960E94F305309759F1AA81BB81E7
:10071C0014960E94F3058F01309761F00230E0E0EF
:10072C001E0798F0F80131978F01AA81BB811496AE
:10073C00ED93FC93AA81BB811296ED91FD913196BC
:10074C00FE93EE933197AC81A083AA81BB810E946A
:10075C00F305FF232AF0ED91FD913196FE93EE9374
:10076C0006C0AA81BB81EFEFFFEFED93FC931981DB
:10077C00088125960895BA93AA9326970E9400069D
:10078C0010E0AC85BD85E0E0F0E0ED93FC93EA89E8
:10079C00FB893196EA8BFB8B3197E4912E2FE0305D
:1007AC0009F415C1E12FE03039F4253211F411E0D0
:1007BC0002C00E94AD050AC1E130A9F4253219F43A
:1007CC000E94AD0502C112E040E000E02D3211F4B0
:1007DC0001E0FCC02B3211F44BE2F8C0203211F4D2
:1007EC0040E2F4C002C0E23039F450E013E02033B0
:1007FC0011F40068EBC003C0E33009F0E7C020330C
:10080C0010F02A3308F007C0AAE05A9F502DE22FAF
:10081C00E0535E0FDBC0E22FE33649F40E94B405CF
:10082C00E889F989A481AA930E94BA05CEC0E3375E
:10083C0041F40E94B4050E94C0050E9429051E2F98
:10084C000AC0E03761F40E94B4050E94C0050E9402
:10085C0035051E2F086002600F7730E034C0E43697
:10086C0011F0E93611F4046002C0E53731F4ECE81C
:10087C00F0E0EE83FF8315E00CC0E83511F408605E
:10088C0003C0E83709F0A1C0E6E9F0E0EE83FF838E
:10089C0014E002FF14C00E94B4050E94CA05AB8587
:1008AC00AA233AF4EA85FB850E94E705EA87FB87D1
:1008BC004DE2403011F01F5F01C00B7F04C00E945D
:1008CC00B4050E94CA0500FD11C0151778F407FF86
:1008DC0008C002FF04C00B7F242F115001C020E37D
:1008EC0001C020E20E94AD055150EFCF312F01FF26
:1008FC0017C03030A1F003FF06C0EE81FF812591B7
:10090C00EE83FF8305C0AE81BF812D91AE83BF8383
:10091C000E94AD05503009F051503150EACF4BC018
:10092C0020E3EE81FF810E94F705E887F987EE81CD
:10093C00FF813296EE83FF83E885F985AA85BB8516
:10094C00AE17BF0750F02F5FA885B985EA85FB85E8
:10095C00EA1BFB0BEA87FB87EFCF2A3328F003FF58
:10096C0002C0295F01C0295D04FD1AC0213320F4A7
:10097C00A885B985119709F409C0531710F000FF29
:10098C0001C013C020E207FF0BC020E3006102FF8F
:10099C0007C00B7F4A930E94BA05503009F05150A2
:1009AC000E94AD05503009F051503150A885B985E1
:1009BC00129708F0B5CF00FF08C0503031F05150FD
:1009CC00E0E2EA930E94BA05F8CF10E0E0CEAC85E5
:1009DC00BD850E94F3050E94070664960895FF9258
:1009EC00F82E26970E9402060E94D205309719F421
:1009FC00EFEFFFEF23C0DE0116960E94E3058D0199
:100A0C000E94D205EE83FF83E0E0E887E987DE01F0
:100A1C001A960E94E3050E94F305FA93EA931A933F
:100A2C000A93E1E8F3E0FA93EA93DE011A96A3DE67
:100A3C009F01AE81BF81E0E0EC93F9010E940906B1
:100A4C002A96FF900895BA93AA93A991B991EE278B
:100A5C00FF276D91662311F03196FBCF0895BA9361
:100A6C00AA93AA27BB27E991F9910590002011F0D0
:100A7C001196FBCFFD010895BA93AA93E881F981F1
:100A8C00E085F0E0E134A0E0FA0708951BB2E881BC
:100A9C00F981E185A1E00E94EB05089518B2E88187
:100AAC00F981E185A1E00E94EB05089515B2E8817A
:100ABC00F981E185A1E00E94EB05089512B2E8816D
:100ACC00F981E185A1E00E94EB05089513B0E8815E
:100ADC00F981E185A1E00E94EB050895A2E6B0E062
:100AEC006A2F1C90E881F981E185A1E00E94EB0559
:100AFC000895ABE0A09FF001A19FF00DE050FB4FDB
:100B0C000895E0933606F09337060895BF01ABE0E5
:100B1C00A09FF001A19FF00D0895DF010E94F30545
:100B2C00DB01ED93FC930895662777270E94FB0564
:100B3C0008950E94F402A3E0B0E00C94D905A0E360
:100B4C000E94CF0280E991E00197F1F708952A9372
:100B5C00AD85BE85EF85F88909950895E889F989F1
:100B6C003497E88BF98B0895AD85BE85EF85F889B0
:100B7C0009950895A889B98914960E94F305EE8306
:100B8C00FF83AE81BF810895A889B98914960E940C
:100B9C00F305EA87FB870895DE011C960E94E305A6
:100BAC000E94F3050895109639F0A89580EA9FE00D
:100BBC000197F1F71197C9F708950024AF0DB01DF7
:100BCC000895F195E195F0400895EE230E2EEA2F4D
:100BDC0019F0EE0F0A94E9F70895ED91FC91119735
:100BEC0008950590F491E02D08957A936A93FA9301
:100BFC00EA9308955A934A933A932A931A930A9331
:100C0C0008955D814C813B812A8119810881089569
:00000001FF
