:0E0000000C9409030C9400000C9400000C9466
:10000E0000000C9400000C9400000C9400000C9462
:10001E0000000C9400000C9400000C9400000C9452
:10002E0000000C9400000C9400000C9439030C9406
:10003E0000000C9400000C9400000C9400000C9432
:10004E0000000C9400000C9400000C9400000C9422
:10005E0000000C9400000C9400000C9400000C9412
:10006E0000000C9400000C9400000C9400000C9402
:10007E0000000C9400000C9400000C94000010275B
:10008E00E80364000A0001000010000110000100E6
:10009E00000000000000000000000A003C000C0000
:1000AE000C00040001001400100002000200040005
:1000BE0004000600060006000600080008000800FE
:1000CE0008001000100010000800100008000400C6
:1000DE000400080008004D61696E436C6F636B206D
:1000EE0020536869667400253032643A25303264D4
:1000FE003A25303264202020202530326400327AB6
:10010E0031203D3E202020253032643A25303264A5
:10011E0000253032643A253032643A25303264009C
:10012E002020202027270073657474696E670033C2
:10013E007A31203D3E202020253032643A2530325F
:10014E006400357A32203D3E202020253032643A3C
:10015E002530326400303138203D3E2020202530BD
:10016E0032643A2530326400303230203D3E202059
:10017E0020253032643A2530326400327A35203D03
:10018E003E202020253032643A2530326400383843
:10019E0038203D3E202020253032643A253032640E
:1001AE0000383839203D3E202020253032643A2553
:1001BE003032640038383130203D3E202025303238
:1001CE00643A253032640038383131203D3E2020EB
:1001DE00253032643A253032640038383132203DD1
:1001EE003E2020253032643A2530326400383831D2
:1001FE0033203D3E2020253032643A2530326400D3
:10020E0038383134203D3E2020253032643A2530B6
:10021E0032640038383135203D3E2020253032649E
:10022E003A253032640038383136203D3E202025C4
:10023E003032643A253032640038383137203D3E52
:10024E002020253032643A25303264003838313877
:10025E00203D3E2020253032643A2530326400386D
:10026E00383139203D3E2020253032643A25303257
:10027E006400337A3720203D3E2020253032643A08
:10028E002530326400347A3720203D3E2020253040
:10029E0032643A253032640030303820203D3E2022
:1002AE0020253032643A2530326400303130203D22
:1002BE003E202020253032643A2530326400303121
:1002CE0032203D3E202020253032643A25303264E3
:1002DE0000303133203D3E202020253032643A2537
:1002EE0030326400303134203D3E20202025303223
:1002FE00643A2530326400303135203D3E202020D6
:10030E00253032643A2530326400303136203D3E9D
:10031E00202020253032643A2530326400303137C7
:10032E00203D3E202020253032643A2530326400B4
:10033E0080C001002D4E414E00494E4600000A007D
:10034E0004009E0001002B07A80001002D07AA0043
:10035E0001004E07AC0001005807AE000100620715
:10036E00B00001006C07B20001007807B400010074
:10037E008007B60001008A07B80001009407BA0092
:10038E0001009E07BC000100A807BE000100B207D5
:10039E00C0000100BC07C2000100C607C400010076
:1003AE00D007C6000100DA07C8000100E407CA0042
:1003BE000100EE07CC000100F807CE000100020894
:1003CE00D00001000C08D20001001608D400010074
:1003DE002008D60001002A08D80001003408DA00EF
:1003EE0001003E08DC0001004808DE000100520852
:1003FE00E00001005C08E20011000005E4000700C7
:10040E0011052E0104001805310108001C053501E7
:10041E00070024052E0104002B05310108002F05CD
:10042E003501070037052E0104003E053101080095
:10043E004205350107004A052E0104005105310120
:10044E0008005505350107005D052E010400640501
:10045E003101080068053501070070052E01040002
:10046E007705310108007B053501070083052E0154
:10047E0004008A05310108008E0535010700960536
:10048E002E0104009D0531010800A105350107006C
:10049E00A9052E010400B00531010800B40535018F
:1004AE000700BC052E010400C30531010800C70575
:1004BE0035010700CF052E010400D60531010800D5
:1004CE00DA0535010700E2052E010400E9053101C8
:1004DE000800ED0535010700F5052E010400FC05A9
:1004EE003101080000063501070008062E01040040
:1004FE000F06310108001306350107001B062E01F9
:10050E0004002206310108002606350107002E06DA
:10051E002E010400350631010800390635010700A9
:10052E0041062E0104004806310108004C06350133
:10053E00070054062E0104005B06310108005F0619
:10054E003501070067062E0104006E063101080012
:10055E007206350107007A062E010400810631016C
:10056E0008008506350107008D062E01040094064D
:10057E0031010800980635010700A0062E0104007F
:10058E00A70631010800AB0635010700B3062E01A0
:10059E000400BA0631010800BE0635010700C60682
:1005AE002E010400CD0631010800D10635010700E9
:1005BE00D9062E010400E00631010800E4063501DB
:1005CE000700EC062E010400F30631010800F706C1
:1005DE0035010700FF062E01040006073101080051
:1005EE000A073501070012072E0104001907310111
:1005FE0008001D073501020062083E03010069086C
:10060E0040030000F894EE27ECBBF1E0F5BFE5BF28
:10061E00E0936C008DE0A2E0BB27ED938A95E9F79D
:10062E0080E090E1A0E0B1E0ED930197E9F7ECE412
:10063E00F3E085919591009761F0A591B5910590A4
:10064E001590BF01F00105900D920197E1F7FB01A6
:10065E00F0CF8BBFEFEFEDBFE0E1EEBFC0E0D5E036
:10066E000C945103AA93BA93EA93FA93EFB7EA93D1
:10067E00E4ECEDBDE0E0ECBDF40131964F01ADE2EE
:10068E00B7E00E948D1CE991EFBFF991E991B99104
:10069E00A99118950E940C150E94931C0E94981CFB
:1006AE000E94A51C0E94AA1C0E94B71C0E94BC1C82
:1006BE000E94C91C0E94CE1C0E94DB1C0E94E01CE2
:1006CE000E94ED1C0E94F21C0E94FF1C0E94041D41
:1006DE000E94111D0E94161D0E94231D0E94281D9E
:1006EE000E94351D0E943A1D0E94471D0E944C1DFE
:1006FE000E94591D0E945E1D0E946B1D0E94701D5E
:10070E000E947D1D0E94821D0E948F1D0E94941DBD
:10071E000E94A11D0E94A61D0E94B31D0E94B81D1D
:10072E000E94C51D0E94CA1D0E94D71D0E94DC1D7D
:10073E000E94E91D0E94EE1D0E94FB1D0E94001EDC
:10074E000E940D1E0E94121E0E941F1E0E94241E39
:10075E000E94311E0E94361E0E94431E0E94481E99
:10076E000E94551E0E945A1E0E94671E0E946C1EF9
:10077E000E94791E0E947E1EEBE3F0E0E815F9055B
:10078E0058F488249924F30131963F01E1E0F0E01A
:10079E00E0932507F0932607EBE3F0E0E615F70567
:1007AE0028F466247724F20131962F01E7E0F0E079
:1007BE00E415F50528F444245524F60131966F010D
:1007CE00A0912E07AA2332F4EBE3F0E0E0932D077D
:1007DE00F0932E07E4E6F0E0EC15FD0510F4CC24C2
:1007EE00DD240E9434150E9461150E948E150E9410
:1007FE00BB150E94E8150E9415160E9442160E9413
:10080E006F160E949C160E94C9160E94F6160E9430
:10081E0023170E9450170E947D170E94AA170E944C
:10082E00D7170E9404180E9431180E945E180E9469
:10083E008B180E94B8180E94E5180E9412190E9487
:10084E003F190E946C190E9499190E94C6190E94A4
:10085E00F3190E948B1E29F4E0E0E0932507E09344
:10086E002607E0912707F0912807309709F4DFC299
:10087E00E130A0E0FA0709F01EC1A0915207B09135
:10088E005307119721F4909A0E94911ED0C2A09105
:10089E005C07B0915D07119721F4919A0E94911E09
:1008AE00C6C2A0916607B0916707119721F4929A7C
:1008BE000E94911EBCC2A0917007B0917107119752
:1008CE0021F4939A0E94911EB2C2A0917A07B09120
:1008DE007B07119721F4949A0E94911EA8C2A091B1
:1008EE008407B0918507119721F4959A0E94911E65
:1008FE009EC2A0918E07B0918F07119721F4969A00
:10090E000E94911E94C2A0919807B09199071197D9
:10091E0021F4979A0E94911E8AC2A091A207B091CB
:10092E00A307119721F4A89A0E94911E80C2A0914C
:10093E00AC07B091AD07119721F4A99A0E94911EB0
:10094E0076C2A091B607B091B707119721F4AA9A73
:10095E000E94911E6CC2A091C007B091C107119761
:10096E0021F4AB9A0E94911E62C2A091CA07B09167
:10097E00CB07119721F4AC9A0E94911E58C2A091F8
:10098E00D407B091D507119721F4AD9A0E94911E0C
:10099E004EC2A091DE07B091DF07119721F4AE9AF7
:1009AE000E94911E44C2A091E807B091E9071197E9
:1009BE0021F4AF9A0E94911E3AC2A091F207B09113
:1009CE00F307119721F4DF9A0E94911E30C2A09175
:1009DE00FC07B091FD07119721F4DE9A0E94911E3B
:1009EE0026C2A0910608B0910708119721F4DD9A4E
:1009FE000E94911E1CC2A0911008B091110811976F
:100A0E0021F4DC9A0E94911E12C2A0911A08B09194
:100A1E001B08119721F4DB9A0E94911E08C2A09127
:100A2E002E08B0912F08119721F4DA9A0E94911E88
:100A3E00FEC1A0914208B0914308119721F4D99AB2
:100A4E000E94911EF4C1A0914C08B0914D081197CF
:100A5E0021F4D89A0E94911EEAC1A0912408B09167
:100A6E002508119721F4E0E80E94A01EE0C1A09194
:100A7E003808B0913908119721F4E0E40E94A01EC5
:100A8E00D6C1A0915608B0915708119721F4E0E213
:100A9E000E94A01ECCC1A0916008B0916108119770
:100AAE0021F4E0E10E94A01EC2C1E0E0E09327071E
:100ABE00E0932807BCC1E230A0E0FA0781F4E09190
:100ACE002907F0912A07309729F4E3E0F0E00E941D
:100ADE00A31E04C0A9E2B7E00E948D1CA8C1E3309A
:100AEE00A0E0FA0709F0A3C1A0915207B0915307F5
:100AFE00119749F49098E0E0E0935207E093530782
:100B0E000E94A81E94C1A0915C07B0915D07119739
:100B1E0049F49198E0E0E0935C07E0935D070E9452
:100B2E00A81E85C1A0916607B0916707119749F479
:100B3E009298E0E0E0936607E09367070E94A81E94
:100B4E0076C1A0917007B0917107119749F49398EF
:100B5E00E0E0E0937007E09371070E94A81E67C162
:100B6E00A0917A07B0917B07119749F49498E0E031
:100B7E00E0937A07E0937B070E94A81E58C1A091CC
:100B8E008407B0918507119749F49598E0E0E093BA
:100B9E008407E09385070E94A81E49C1A0918E0785
:100BAE00B0918F07119749F49698E0E0E0938E0785
:100BBE00E0938F070E94A81E3AC1A0919807B091AA
:100BCE009907119749F49798E0E0E0939807E0931E
:100BDE0099070E94A81E2BC1A091A207B091A3074E
:100BEE00119749F4A898E0E0E093A207E093A307D9
:100BFE000E94A81E1CC1A091AC07B091AD07119721
:100C0E0049F4A998E0E0E093AC07E093AD070E94A9
:100C1E00A81E0DC1A091B607B091B707119749F460
:100C2E00AA98E0E0E093B607E093B7070E94A81EEB
:100C3E00FEC0A091C007B091C107119749F4AB98BF
:100C4E00E0E0E093C007E093C1070E94A81EEFC04A
:100C5E00A091CA07B091CB07119749F4AC98E0E088
:100C6E00E093CA07E093CB070E94A81EE0C0A091B4
:100C7E00D407B091D507119749F4AD98E0E0E09311
:100C8E00D407E093D5070E94A81ED1C0A091DE071D
:100C9E00B091DF07119749F4AE98E0E0E093DE07DC
:100CAE00E093DF070E94A81EC2C0A091E807B09192
:100CBE00E907119749F4AF98E0E0E093E807E09375
:100CCE00E9070E94A81EB3C0A091F207B091F307E6
:100CDE00119749F4DF98E0E0E093F207E093F30711
:100CEE000E94A81EA4C0A091FC07B091FD07119709
:100CFE0049F4DE98E0E0E093FC07E093FD070E94E4
:100D0E00A81E95C0A0910608B0910708119749F446
:100D1E00DD98E0E0E0930608E09307080E94A81E25
:100D2E0086C0A0911008B0911108119749F4DC9873
:100D3E00E0E0E0931008E09311080E94A81E77C02F
:100D4E00A0911A08B0911B08119749F4DB98E0E0C6
:100D5E00E0931A08E0931B080E94A81E68C0A09199
:100D6E002E08B0912F08119749F4DA98E0E0E0933D
:100D7E002E08E0932F080E94A81E59C0A091420889
:100D8E00B0914308119749F4D998E0E0E0934208F6
:100D9E00E09343080E94A81E4AC0A0914C08B0914F
:100DAE004D08119749F4D898E0E0E0934C08E09391
:100DBE004D080E94A81E3BC0A0912408B0912508A2
:100DCE00119749F40E94AB1EE0932408E093250886
:100DDE000E94A81E2CC0A0913808B0913908119716
:100DEE0049F40E94AB1EE0933808E09339080E9444
:100DFE00A81E1DC0A0915608B0915708119749F42E
:100E0E000E94AB1EE0935608E09357080E94A81E5E
:100E1E000EC0A0916008B0916108119741F40E9434
:100E2E00AB1EE0936008E09361080E94A81E0A9929
:100E3E0007C00E94AF1EF50131965F010E94B31EDE
:100E4E00ECE1F0E0EA15FB0510F4AA24BB24F50151
:100E5E00309711F50E94B91EA0E0B5E00E94C01EA9
:100E6E000E94C71EE5EFF0E0FA93EA93F2010E94AA
:100E7E00CC1EF3010E94CC1EF4010E94CC1EF60182
:100E8E000E94CC1E80E10E94401C6496A1E3B7E054
:100E9E000E94911A0C940915E130A0E0FA0709F0AE
:100EAE0079C00E94B91E0E94C71EECE0F1E0FA93D1
:100EBE00EA930E94931C0E94D11E0E94D61E0E948D
:100ECE00D11E0E94DB1E0E94E21EE0914A07F091A5
:100EDE004B070E94D11EE0914C07F0914D070E94E6
:100EEE00D11E0E94EB1E0E94F01E0B9902C00E94A2
:100EFE00F81E0E94041F1197E1F40E94091FA1E140
:100F0E00B5E00E94911A0C9914C00E94AF1E0E9467
:100F1E00D61E3A96E0935007F0935107A0915007D2
:100F2E00B0915107D3972CF0E0E0E0935007E09397
:100F3E0051070E94041F1297C9F40E94091FA8E1CD
:100F4E00B5E00E94911A0C9911C00E94AF1EAEE43A
:100F5E00B7E00E940E1FA0914E07B0914F07D19798
:100F6E002CF0E0E0E0934E07E0934F070E94041F41
:100F7E00139771F40E94091FACE1B5E00E94911A1B
:100F8E000E94931C0E94981C0E94AF1E0E94B31ECA
:100F9E000C940915E230A0E0FA0709F079C00E941E
:100FAE00B91E0E94C71EEDE3F1E0FA93EA930E9488
:100FBE00A51C0E94D11E0E94141F0E94D11E0E94C9
:100FCE00DB1E0E94E21EE0915407F09155070E942D
:100FDE00D11EE0915607F09157070E94D11E0E9434
:100FEE00EB1E0E94F01E0B9902C00E94F81E0E947A
:100FFE00041F1197E1F40E94091FA4E2B5E00E94BC
:10100E00911A0C9914C00E94AF1E0E94141F3A969A
:10101E00E0935A07F0935B07A0915A07B0915B07D4
:10102E00D3972CF0E0E0E0935A07E0935B070E9421
:10103E00041F1297C9F40E94091FABE2B5E00E948B
:10104E00911A0C9911C00E94AF1EA8E5B7E00E943C
:10105E000E1FA0915807B0915907D1972CF0E0E0E0
:10106E00E0935807E09359070E94041F139771F4F9
:10107E000E94091FAFE2B5E00E94911A0E94A51CC2
:10108E000E94AA1C0E94AF1E0E94B31E0C9409154A
:10109E00E330A0E0FA0709F079C00E94B91E0E9461
:1010AE00C71EE0E5F1E0FA93EA930E94B71C0E9496
:1010BE00D11E0E94191F0E94D11E0E94DB1E0E948B
:1010CE00E21EE0915E07F0915F070E94D11EE09153
:1010DE006007F09161070E94D11E0E94EB1E0E94D4
:1010EE00F01E0B9902C00E94F81E0E94041F119759
:1010FE00E1F40E94091FA7E3B5E00E94911A0C9932
:10110E0014C00E94AF1E0E94191F3A96E093640706
:10111E00F0936507A0916407B0916507D3972CF003
:10112E00E0E0E0936407E09365070E94041F1297C6
:10113E00C9F40E94091FAEE3B5E00E94911A0C9902
:10114E0011C00E94AF1EA2E6B7E00E940E1FA09132
:10115E006207B0916307D1972CF0E0E0E09362074D
:10116E00E09363070E94041F139771F40E94091FF6
:10117E00A2E4B5E00E94911A0E94B71C0E94BC1C0A
:10118E000E94AF1E0E94B31E0C940915E430A0E01D
:10119E00FA0709F079C00E94B91E0E94C71EE3E645
:1011AE00F1E0FA93EA930E94C91C0E94D11E0E949C
:1011BE001E1F0E94D11E0E94DB1E0E94E21EE091A5
:1011CE006807F09169070E94D11EE0916A07F091BD
:1011DE006B070E94D11E0E94EB1E0E94F01E0B99FF
:1011EE0002C00E94F81E0E94041F1197E1F40E9493
:1011FE00091FAAE4B5E00E94911A0C9914C00E942E
:10120E00AF1E0E941E1F3A96E0936E07F0936F0773
:10121E00A0916E07B0916F07D3972CF0E0E0E093AA
:10122E006E07E0936F070E94041F1297C9F40E9485
:10123E00091FA1E5B5E00E94911A0C9911C00E94F8
:10124E00AF1EACE6B7E00E940E1FA0916C07B091E6
:10125E006D07D1972CF0E0E0E0936C07E0936D07FB
:10126E000E94041F139771F40E94091FA5E5B5E0B3
:10127E000E94911A0E94C91C0E94CE1C0E94AF1E91
:10128E000E94B31E0C940915E530A0E0FA0709F090
:10129E0079C00E94B91E0E94C71EE6E7F1E0FA93DC
:1012AE00EA930E94DB1C0E94D11E0E94231F0E9403
:1012BE00D11E0E94DB1E0E94E21EE0917207F09189
:1012CE0073070E94D11EE0917407F09175070E947A
:1012DE00D11E0E94EB1E0E94F01E0B9902C00E94AE
:1012EE00F81E0E94041F1197E1F40E94091FADE53C
:1012FE00B5E00E94911A0C9914C00E94AF1E0E9474
:10130E00231F3A96E0937807F0937907A091780718
:10131E00B0917907D3972CF0E0E0E0937807E09353
:10132E0079070E94041F1297C9F40E94091FA4E6B0
:10133E00B5E00E94911A0C9911C00E94AF1EA6E74B
:10134E00B7E00E940E1FA0917607B0917707D19754
:10135E002CF0E0E0E0937607E09377070E94041FFD
:10136E00139771F40E94091FA8E6B5E00E94911A26
:10137E000E94DB1C0E94E01C0E94AF1E0E94B31E46
:10138E000C940915E630A0E0FA0709F079C00E9426
:10139E00B91E0E94C71EE9E8F1E0FA93EA930E9493
:1013AE00ED1C0E94D11E0E94281F0E94D11E0E9479
:1013BE00DB1E0E94E21EE0917C07F0917D070E94E9
:1013CE00D11EE0917E07F0917F070E94D11E0E94F0
:1013DE00EB1E0E94F01E0B9902C00E94F81E0E9486
:1013EE00041F1197E1F40E94091FA0E7B5E00E94C7
:1013FE00911A0C9914C00E94AF1E0E94281F3A9693
:10140E00E0938207F0938307A0918207B091830740
:10141E00D3972CF0E0E0E0938207E09383070E94DD
:10142E00041F1297C9F40E94091FA7E7B5E00E9496
:10143E00911A0C9911C00E94AF1EA0E8B7E00E944D
:10144E000E1FA0918007B0918107D1972CF0E0E09C
:10145E00E0938007E09381070E94041F139771F4B5
:10146E000E94091FABE7B5E00E94911A0E94ED1C85
:10147E000E94F21C0E94AF1E0E94B31E0C9409150E
:10148E00E730A0E0FA0709F079C00E94B91E0E9469
:10149E00C71EECE9F1E0FA93EA930E94FF1C0E944A
:1014AE00D11E0E942D1F0E94D11E0E94DB1E0E9483
:1014BE00E21EE0918607F09187070E94D11EE0910F
:1014CE008807F09189070E94D11E0E94EB1E0E9490
:1014DE00F01E0B9902C00E94F81E0E94041F119765
:1014EE00E1F40E94091FA3E8B5E00E94911A0C993D
:1014FE0014C00E94AF1E0E942D1F3A96E0938C07D7
:10150E00F0938D07A0918C07B0918D07D3972CF097
:10151E00E0E0E0938C07E0938D070E94041F129782
:10152E00C9F40E94091FAAE8B5E00E94911A0C990D
:10153E0011C00E94AF1EAAE8B7E00E940E1FA09134
:10154E008A07B0918B07D1972CF0E0E0E0938A07E1
:10155E00E0938B070E94041F139771F40E94091FDA
:10156E00AEE8B5E00E94911A0E94FF1C0E94041D75
:10157E000E94AF1E0E94B31E0C940915E830A0E025
:10158E00FA0709F079C00E94B91E0E94C71EEFEA41
:10159E00F1E0FA93EA930E94111D0E94D11E0E945F
:1015AE00321F0E94D11E0E94DB1E0E94E21EE0919D
:1015BE009007F09191070E94D11EE0919207F09151
:1015CE0093070E94D11E0E94EB1E0E94F01E0B99E3
:1015DE0002C00E94F81E0E94041F1197E1F40E949F
:1015EE00091FA6E9B5E00E94911A0C9914C00E9439
:1015FE00AF1E0E94321F3A96E0939607F09397071C
:10160E00A0919607B0919707D3972CF0E0E0E09366
:10161E009607E09397070E94041F1297C9F40E9441
:10162E00091FADE9B5E00E94911A0C9911C00E94F4
:10163E00AF1EA4E9B7E00E940E1FA0919407B091CF
:10164E009507D1972CF0E0E0E0939407E09395078F
:10165E000E94041F139771F40E94091FA1EAB5E0BE
:10166E000E94911A0E94111D0E94161D0E94AF1E0B
:10167E000E94B31E0C940915E930A0E0FA0709F098
:10168E0079C00E94B91E0E94C71EE2ECF1E0FA93E7
:10169E00EA930E94231D0E94D11E0E94371F0E94B2
:1016AE00D11E0E94DB1E0E94E21EE0919A07F0916D
:1016BE009B070E94D11EE0919C07F0919D070E940E
:1016CE00D11E0E94EB1E0E94F01E0B9902C00E94BA
:1016DE00F81E0E94041F1197E1F40E94091FA9EA47
:1016EE00B5E00E94911A0C9914C00E94AF1E0E9480
:1016FE00371F3A96E093A007F093A107A091A00799
:10170E00B091A107D3972CF0E0E0E093A007E0930F
:10171E00A1070E94041F1297C9F40E94091FA0EB93
:10172E00B5E00E94911A0C9911C00E94AF1EAEE94D
:10173E00B7E00E940E1FA0919E07B0919F07D19710
:10174E002CF0E0E0E0939E07E0939F070E94041FB9
:10175E00139771F40E94091FA4EBB5E00E94911A31
:10176E000E94231D0E94281D0E94AF1E0E94B31EC0
:10177E000C940915EA30A0E0FA0709F079C00E942E
:10178E00B91E0E94C71EE5EDF1E0FA93EA930E949E
:10179E00351D0E94D11E0E943C1F0E94D11E0E9428
:1017AE00DB1E0E94E21EE091A407F091A5070E94A5
:1017BE00D11EE091A607F091A7070E94D11E0E94AC
:1017CE00EB1E0E94F01E0B9902C00E94F81E0E9492
:1017DE00041F1197E1F40E94091FACEBB5E00E94C3
:1017EE00911A0C9914C00E94AF1E0E943C1F3A968B
:1017FE00E093AA07F093AB07A091AA07B091AB07AD
:10180E00D3972CF0E0E0E093AA07E093AB070E9499
:10181E00041F1297C9F40E94091FA3ECB5E00E94A1
:10182E00911A0C9911C00E94AF1EA8EAB7E00E944F
:10183E000E1FA091A807B091A907D1972CF0E0E058
:10184E00E093A807E093A9070E94041F139771F471
:10185E000E94091FA7ECB5E00E94911A0E94351D47
:10186E000E943A1D0E94AF1E0E94B31E0C940915D1
:10187E00EB30A0E0FA0709F079C00E94B91E0E9471
:10188E00C71EE8EEF1E0FA93EA930E94471D0E940C
:10189E00D11E0E94411F0E94D11E0E94DB1E0E947B
:1018AE00E21EE091AE07F091AF070E94D11EE091CB
:1018BE00B007F091B1070E94D11E0E94EB1E0E944C
:1018CE00F01E0B9902C00E94F81E0E94041F119771
:1018DE00E1F40E94091FAFECB5E00E94911A0C9939
:1018EE0014C00E94AF1E0E94411F3A96E093B407A7
:1018FE00F093B507A091B407B091B507D3972CF02C
:10190E00E0E0E093B407E093B5070E94041F12973E
:10191E00C9F40E94091FA6EDB5E00E94911A0C9918
:10192E0011C00E94AF1EA2EBB7E00E940E1FA09145
:10193E00B207B091B307D1972CF0E0E0E093B20775
:10194E00E093B3070E94041F139771F40E94091FBE
:10195E00AAEDB5E00E94911A0E94471D0E944C1DEF
:10196E000E94AF1E0E94B31E0C940915EC30A0E02D
:10197E00FA0709F078C00E94B91E0E94C71EEBEF4D
:10198E00F1E0FA93EA930E94591D0E94D11E0E9423
:10199E00461F0E94D11E0E94DB1E0E94E21EE09195
:1019AE00B807F091B9070E94D11EE091BA07F091E5
:1019BE00BB070E94D11E0E94EB1E0E94F01E0B99C7
:1019CE0002C00E94F81E0E94041F1197E1F40E94AB
:1019DE00091FA2EEB5E00E94911A0C9914C00E9444
:1019EE00AF1E0E94461F3A96E093BE07F093BF07C4
:1019FE00A091BE07B091BF07D3972CF0E0E0E09323
:101A0E00BE07E093BF070E94041F1297C9F40E94FD
:101A1E00091FA9EEB5E00E94911A0C9911C00E94FF
:101A2E00AF1EACEBB7E00E940E1FA091BC07B091A9
:101A3E00BD07D1972CF0E0E0E093BC07E093BD0723
:101A4E000E94041F139771F40E94091FADEEB5E0BA
:101A5E000E94911A0E94591D0E945E1D0E94AF1E87
:101A6E000E94B31ECFC7ED30A0E0FA0709F078C090
:101A7E000E94B91E0E94C71EEEE0F2E0FA93EA93AE
:101A8E000E946B1D0E94D11E0E944B1F0E94D11EF0
:101A9E000E94DB1E0E94E21EE091C207F091C30776
:101AAE000E94D11EE091C407F091C5070E94D11E7D
:101ABE000E94EB1E0E94F01E0B9902C00E94F81E9F
:101ACE000E94041F1197E1F40E94091FA5EFB5E0D3
:101ADE000E94911A0C9914C00E94AF1E0E944B1FB7
:101AEE003A96E093C807F093C907A091C807B09142
:101AFE00C907D3972CF0E0E0E093C807E093C9073D
:101B0E000E94041F1297C9F40E94091FACEFB5E0A2
:101B1E000E94911A0C9911C00E94AF1EA6ECB7E05C
:101B2E000E940E1FA091C607B091C707D1972CF047
:101B3E00E0E0E093C607E093C7070E94041F1397E7
:101B4E0071F40E94091FA0E0B6E00E94911A0E9453
:101B5E006B1D0E94701D0E94AF1E0E94B31E52C7C5
:101B6E00EE30A0E0FA0709F078C00E94B91E0E947C
:101B7E00C71EE1E2F2E0FA93EA930E947D1D0E94F5
:101B8E00D11E0E94501F0E94D11E0E94DB1E0E9479
:101B9E00E21EE091CC07F091CD070E94D11EE0919C
:101BAE00CE07F091CF070E94D11E0E94EB1E0E941D
:101BBE00F01E0B9902C00E94F81E0E94041F11977E
:101BCE00E1F40E94091FA8E0B6E00E94911A0C9958
:101BDE0014C00E94AF1E0E94501F3A96E093D20787
:101BEE00F093D307A091D207B091D307D3972CF0DF
:101BFE00E0E0E093D207E093D3070E94041F129710
:101C0E00C9F40E94091FAFE0B6E00E94911A0C9928
:101C1E0011C00E94AF1EA0EDB7E00E940E1FA09152
:101C2E00D007B091D107D1972CF0E0E0E093D00728
:101C3E00E093D1070E94041F139771F40E94091FAD
:101C4E00A3E1B6E00E94911A0E947D1D0E94821DA2
:101C5E000E94AF1E0E94B31ED5C6EF30A0E0FA0759
:101C6E0009F078C00E94B91E0E94C71EE4E3F2E09C
:101C7E00FA93EA930E948F1D0E94D11E0E94551F57
:101C8E000E94D11E0E94DB1E0E94E21EE091D6072A
:101C9E00F091D7070E94D11EE091D807F091D90795
:101CAE000E94D11E0E94EB1E0E94F01E0B9902C0D4
:101CBE000E94F81E0E94041F1197E1F40E94091F52
:101CCE00ABE1B6E00E94911A0C9914C00E94AF1EAF
:101CDE000E94551F3A96E093DC07F093DD07A09122
:101CEE00DC07B091DD07D3972CF0E0E0E093DC0742
:101CFE00E093DD070E94041F1297C9F40E94091F8A
:101D0E00A2E2B6E00E94911A0C9911C00E94AF1E79
:101D1E00AAEDB7E00E940E1FA091DA07B091DB0783
:101D2E00D1972CF0E0E0E093DA07E093DB070E9416
:101D3E00041F139771F40E94091FA6E2B6E00E94D9
:101D4E00911A0E948F1D0E94941D0E94AF1E0E9428
:101D5E00B31E58C6E031A0E0FA0709F078C00E9421
:101D6E00B91E0E94C71EE7E4F2E0FA93EA930E94BE
:101D7E00A11D0E94D11E0E945A1F0E94D11E0E94B8
:101D8E00DB1E0E94E21EE091E007F091E1070E9447
:101D9E00D11EE091E207F091E3070E94D11E0E944E
:101DAE00EB1E0E94F01E0B9902C00E94F81E0E94AC
:101DBE00041F1197E1F40E94091FAEE2B6E00E94E3
:101DCE00911A0C9914C00E94AF1E0E945A1F3A9687
:101DDE00E093E607F093E707A091E607B091E707D7
:101DEE00D3972CF0E0E0E093E607E093E7070E943C
:101DFE00041F1297C9F40E94091FA5E3B6E00E94C2
:101E0E00911A0C9911C00E94AF1EA4EEB7E00E9469
:101E1E000E1FA091E407B091E507D1972CF0E0E0FA
:101E2E00E093E407E093E5070E94041F139771F413
:101E3E000E94091FA9E3B6E00E94911A0E94A11DFB
:101E4E000E94A61D0E94AF1E0E94B31EDBC5E1318B
:101E5E00A0E0FA0709F078C00E94B91E0E94C71EC2
:101E6E00EAE5F2E0FA93EA930E94B31D0E94D11EB6
:101E7E000E945F1F0E94D11E0E94DB1E0E94E21E66
:101E8E00E091EA07F091EB070E94D11EE091EC077A
:101E9E00F091ED070E94D11E0E94EB1E0E94F01ED3
:101EAE000B9902C00E94F81E0E94041F1197E1F4C4
:101EBE000E94091FA1E4B6E00E94911A0C9914C069
:101ECE000E94AF1E0E945F1F3A96E093F007F093B8
:101EDE00F107A091F007B091F107D3972CF0E0E055
:101EEE00E093F007E093F1070E94041F1297C9F4E4
:101EFE000E94091FA8E4B6E00E94911A0C9911C025
:101F0E000E94AF1EAEEEB7E00E940E1FA091EE072C
:101F1E00B091EF07D1972CF0E0E0E093EE07E0935D
:101F2E00EF070E94041F139771F40E94091FACE47F
:101F3E00B6E00E94911A0E94B31D0E94B81D0E9425
:101F4E00AF1E0E94B31E5EC5E231A0E0FA0709F093
:101F5E0078C00E94B91E0E94C71EEDE6F2E0FA9309
:101F6E00EA930E94C51D0E94D11E0E94641F0E940A
:101F7E00D11E0E94DB1E0E94E21EE091F407F0913A
:101F8E00F5070E94D11EE091F607F091F7070E9427
:101F9E00D11E0E94EB1E0E94F01E0B9902C00E94E1
:101FAE00F81E0E94041F1197E1F40E94091FA4E578
:101FBE00B6E00E94911A0C9914C00E94AF1E0E94A6
:101FCE00641F3A96E093FA07F093FB07A091FA0785
:101FDE00B091FB07D3972CF0E0E0E093FA07E09383
:101FEE00FB070E94041F1297C9F40E94091FABE55C
:101FFE00B6E00E94911A0C9911C00E94AF1EA8EF74
:10200E00B7E00E940E1FA091F807B091F907D19783
:10201E002CF0E0E0E093F807E093F9070E94041F2C
:10202E00139771F40E94091FAFE5B6E00E94911A52
:10203E000E94C51D0E94CA1D0E94AF1E0E94B31EA3
:10204E00E1C4E331A0E0FA0709F078C00E94B91E9E
:10205E000E94C71EE0E8F2E0FA93EA930E94D71DB1
:10206E000E94D11E0E94691F0E94D11E0E94DB1E7B
:10207E000E94E21EE091FE07F091FF070E94D11E22
:10208E00E0910008F09101080E94D11E0E94EB1E03
:10209E000E94F01E0B9902C00E94F81E0E94041F9F
:1020AE001197E1F40E94091FA7E6B6E00E94911A6B
:1020BE000C9914C00E94AF1E0E94691F3A96E093BD
:1020CE000408F0930508A0910408B0910508D39771
:1020DE002CF0E0E0E0930408E09305080E94041F52
:1020EE001297C9F40E94091FAEE6B6E00E94911A3B
:1020FE000C9911C00E94AF1EA2E0B8E00E940E1F04
:10210E00A0910208B0910308D1972CF0E0E0E09383
:10211E000208E09303080E94041F139771F40E94B3
:10212E00091FA2E7B6E00E94911A0E94D71D0E94D5
:10213E00DC1D0E94AF1E0E94B31E64C4E431A0E0F9
:10214E00FA0709F078C00E94B91E0E94C71EE3E983
:10215E00F2E0FA93EA930E94E91D0E94D11E0E94BA
:10216E006E1F0E94D11E0E94DB1E0E94E21EE09195
:10217E000808F09109080E94D11EE0910A08F0911A
:10218E000B080E94D11E0E94EB1E0E94F01E0B999E
:10219E0002C00E94F81E0E94041F1197E1F40E94D3
:1021AE00091FAAE7B6E00E94911A0C9914C00E946A
:1021BE00AF1E0E946E1F3A96E0930E08F0930F0822
:1021CE00A0910E08B0910F08D3972CF0E0E0E093A9
:1021DE000E08E0930F080E94041F1297C9F40E9484
:1021EE00091FA1E8B6E00E94911A0C9911C00E9435
:1021FE00AF1EACE0B8E00E940E1FA0910C08B0918B
:10220E000D08D1972CF0E0E0E0930C08E0930D0858
:10221E000E94041F139771F40E94091FA5E8B6E0EF
:10222E000E94911A0E94E91D0E94EE1D0E94AF1E8F
:10223E000E94B31EE7C3E531A0E0FA0709F078C0AB
:10224E000E94B91E0E94C71EE6EAF2E0FA93EA93D4
:10225E000E94FB1D0E94D11E0E94731F0E94D11E60
:10226E000E94DB1E0E94E21EE0911208F0911308FC
:10227E000E94D11EE0911408F09115080E94D11E03
:10228E000E94EB1E0E94F01E0B9902C00E94F81EC7
:10229E000E94041F1197E1F40E94091FADE8B6E0F9
:1022AE000E94911A0C9914C00E94AF1E0E94731FB7
:1022BE003A96E0931808F0931908A0911808B09177
:1022CE001908D3972CF0E0E0E0931808E093190872
:1022DE000E94041F1297C9F40E94091FA4E9B6E0D8
:1022EE000E94911A0C9911C00E94AF1EA6E1B8E08F
:1022FE000E940E1FA0911608B0911708D1972CF0CE
:10230E00E0E0E0931608E09317080E94041F13976D
:10231E0071F40E94091FA8E9B6E00E94911A0E946A
:10232E00FB1D0E94001E0E94AF1E0E94B31E6AC3B8
:10233E00E631A0E0FA0709F078C00E94B91E0E94AB
:10234E00C71EE9EBF2E0FA93EA930E940D1E0E947B
:10235E00D11E0E94781F0E94D11E0E94DB1E0E9479
:10236E00E21EE0911C08F0911D080E94D11EE09122
:10237E001E08F0911F080E94D11E0E94EB1E0E94A3
:10238E00F01E0B9902C00E94F81E0E94041F1197A6
:10239E00E1F40E94091FA0EAB6E00E94911A0C997E
:1023AE0014C00E94AF1E0E94781F3A96E093220836
:1023BE00F0932308A0912208B0912308D3972CF014
:1023CE00E0E0E0932208E09323080E94041F129796
:1023DE00C9F40E94091FA7EAB6E00E94911A0C994F
:1023EE0011C00E94AF1EA0E2B8E00E940E1FA09185
:1023FE002008B0912108D1972CF0E0E0E09320085E
:10240E00E09321080E94041F139771F40E94091F84
:10241E00ABEAB6E00E94911A0E940D1E0E94121E97
:10242E000E94AF1E0E94B31EEDC2E731A0E0FA0774
:10243E0009F078C00E94B91E0E94C71EECECF2E0B3
:10244E00FA93EA930E941F1E0E94D11E0E947D1FC6
:10245E000E94D11E0E94DB1E0E94E21EE091260801
:10246E00F09127080E94D11EE0912808F0912908CA
:10247E000E94D11E0E94EB1E0E94F01E0B9902C0FC
:10248E000E94F81E0E94041F1197E1F40E94091F7A
:10249E00A3EBB6E00E94911A0C9914C00E94AF1ED5
:1024AE000E947D1F3A96E0932C08F0932D08A09180
:1024BE002C08B0912D08D3972CF0E0E0E0932C0877
:1024CE00E0932D080E94041F1297C9F40E94091F61
:1024DE00AAEBB6E00E94911A0C9911C00E94AF1E91
:1024EE00AAE2B8E00E940E1FA0912A08B0912B0814
:1024FE00D1972CF0E0E0E0932A08E0932B080E949D
:10250E00041F139771F40E94091FAEEBB6E00E94F0
:10251E00911A0E941F1E0E94241E0E94AF1E0E942E
:10252E00B31E70C2E831A0E0FA0709F078C00E942D
:10253E00B91E0E94C71EEFEDF2E0FA93EA930E94D5
:10254E00311E0E94D11E0E94821F0E94D11E0E9427
:10255E00DB1E0E94E21EE0913008F09131080E94CD
:10256E00D11EE0913208F09133080E94D11E0E94D4
:10257E00EB1E0E94F01E0B9902C00E94F81E0E94D4
:10258E00041F1197E1F40E94091FA6ECB6E00E9409
:10259E00911A0C9914C00E94AF1E0E94821F3A9687
:1025AE00E0933608F0933708A0913608B0913708BB
:1025BE00D3972CF0E0E0E0933608E09337080E94C2
:1025CE00041F1297C9F40E94091FADECB6E00E94D9
:1025DE00911A0C9911C00E94AF1EA4E3B8E00E949C
:1025EE000E1FA0913408B0913508D1972CF0E0E081
:1025FE00E0933408E09335080E94041F139771F49A
:10260E000E94091FA1EDB6E00E94911A0E94311E90
:10261E000E94361E0E94AF1E0E94B31EF3C1E93106
:10262E00A0E0FA0709F078C00E94B91E0E94C71EEA
:10263E00E2EFF2E0FA93EA930E94431E0E94D11E4B
:10264E000E94871F0E94D11E0E94DB1E0E94E21E66
:10265E00E0913A08F0913B080E94D11EE0913C08AF
:10266E00F0913D080E94D11E0E94EB1E0E94F01EAA
:10267E000B9902C00E94F81E0E94041F1197E1F4EC
:10268E000E94091FA9EDB6E00E94911A0C9914C080
:10269E000E94AF1E0E94871F3A96E0934008F09367
:1026AE004108A0914008B0914108D3972CF0E0E08A
:1026BE00E0934008E09341080E94041F1297C9F46A
:1026CE000E94091FA0EEB6E00E94911A0C9911C04B
:1026DE000E94AF1EAEE3B8E00E940E1FA0913E080E
:1026EE00B0913F08D1972CF0E0E0E0933E08E093E4
:1026FE003F080E94041F139771F40E94091FA4EE55
:10270E00B6E00E94911A0E94431E0E94481E0E942B
:10271E00AF1E0E94B31E76C1EA31A0E0FA0709F09F
:10272E0078C00E94B91E0E94C71EE5E0F3E0FA933E
:10273E00EA930E94551E0E94D11E0E948C1F0E9479
:10274E00D11E0E94DB1E0E94E21EE0914408F09111
:10275E0045080E94D11EE0914608F09147080E945C
:10276E00D11E0E94EB1E0E94F01E0B9902C00E9409
:10277E00F81E0E94041F1197E1F40E94091FACEE8F
:10278E00B6E00E94911A0C9914C00E94AF1E0E94CE
:10279E008C1F3A96E0934A08F0934B08A0914A0892
:1027AE00B0914B08D3972CF0E0E0E0934A08E09309
:1027BE004B080E94041F1297C9F40E94091FA3EF31
:1027CE00B6E00E94911A0C9911C00E94AF1EA8E4A7
:1027DE00B8E00E940E1FA0914808B0914908D19709
:1027EE002CF0E0E0E0934808E09349080E94041FB3
:1027FE00139771F40E94091FA7EFB6E00E94911A79
:10280E000E94551E0E945A1E0E94AF1E0E94B31EA9
:10281E00F9C0EB31A0E0FA0709F078C00E94B91EAA
:10282E000E94C71EE8E1F3E0FA93EA930E94671E46
:10283E000E94D11E0E94911F0E94D11E0E94DB1E7B
:10284E000E94E21EE0914E08F0914F080E94D11EA8
:10285E00E0915008F09151080E94D11E0E94EB1E8B
:10286E000E94F01E0B9902C00E94F81E0E94041FC7
:10287E001197E1F40E94091FAFEFB6E00E94911A82
:10288E000C9914C00E94AF1E0E94911F3A96E093BD
:10289E005408F0935508A0915408B0915508D39759
:1028AE002CF0E0E0E0935408E09355080E94041FDA
:1028BE001297C9F40E94091FA6E0B7E00E94911A70
:1028CE000C9911C00E94AF1EA2E5B8E00E940E1F27
:1028DE00A0915208B0915308D1972CF0E0E0E0930C
:1028EE005208E09353080E94041F139771F40E943C
:1028FE00091FAAE0B7E00E94911A0E94671E0E946B
:10290E006C1E0E94AF1E0E94B31E7CC0EC31A0E074
:10291E00FA0709F077C00E94B91E0E94C71EEBE2AB
:10292E00F3E0FA93EA930E94791E0E94D11E0E9450
:10293E00961F0E94D11E0E94DB1E0E94E21EE09195
:10294E005808F09159080E94D11EE0915A08F09152
:10295E005B080E94D11E0E94EB1E0E94F01E0B9976
:10296E0002C00E94F81E0E94041F1197E1F40E94FB
:10297E00091FA2E1B7E00E94911A0C9914C00E949F
:10298E00AF1E0E94961F3A96E0935E08F0935F0882
:10299E00A0915E08B0915F08D3972CF0E0E0E09331
:1029AE005E08E0935F080E94041F1297C9F40E940C
:1029BE00091FA9E1B7E00E94911A0C9911C00E945B
:1029CE00AF1EACE5B8E00E940E1FA0915C08B0915E
:1029DE005D08D1972CF0E0E0E0935C08E0935D0891
:1029EE000E94041F139771F40E94091FADE1B7E016
:1029FE000E94911A0E94791E0E947E1E0E94AF1E96
:102A0E000E94B31E0C94C303FFCFEFEFEABBE4BBEF
:102A1E00E1BBE0E0E2B9ECE1E3B9E0EFE0936100A5
:102A2E000E94AB1EEFBDE3E0EEBDE4ECEDBDE0E0D9
:102A3E00ECBDE7BDE6BDEBBDEABDE9BDE8BDE0938B
:102A4E007900E0937800E4E0E7BFE0E0E0937D00FA
:102A5E00A0E10E94A21A789408950E948B1E49F557
:102A6E00ACE4B7E00E948D1CA0914D07AA230AF595
:102A7E00E0914A07F0914B07309789F4E1E0F0E0DE
:102A8E00E0935207F09353070E94A81E0E94931CD6
:102A9E00E0934A07F0934B070E94D61E06C0AAE4A5
:102AAE00B7E00E948D1CEBE3F0E0E0934C07F0934F
:102ABE004D0708950E948B1E49F5A6E5B7E00E94CA
:102ACE008D1CA0915707AA230AF5E0915407F091A7
:102ADE005507309789F4E1E0F0E0E0935C07F0935E
:102AEE005D070E94A81E0E94A51CE0935407F09358
:102AFE0055070E94141F06C0A4E5B7E00E948D1C66
:102B0E00EBE3F0E0E0935607F093570708950E9429
:102B1E008B1E49F5A0E6B7E00E948D1CA0916107BF
:102B2E00AA230AF5E0915E07F0915F07309789F4CA
:102B3E00E1E0F0E0E0936607F09367070E94A81EBD
:102B4E000E94B71CE0935E07F0935F070E94191F67
:102B5E0006C0AEE5B7E00E948D1CEBE3F0E0E0931B
:102B6E006007F093610708950E948B1E49F5AAE64F
:102B7E00B7E00E948D1CA0916B07AA230AF5E09185
:102B8E006807F0916907309789F4E1E0F0E0E0938F
:102B9E007007F09371070E94A81E0E94C91CE09353
:102BAE006807F09369070E941E1F06C0A8E6B7E0EB
:102BBE000E948D1CEBE3F0E0E0936A07F0936B0745
:102BCE0008950E948B1E49F5A4E7B7E00E948D1C64
:102BDE00A0917507AA230AF5E0917207F091730789
:102BEE00309789F4E1E0F0E0E0937A07F0937B0709
:102BFE000E94A81E0E94DB1CE0937207F0937307DD
:102C0E000E94231F06C0A2E7B7E00E948D1CEBE3D3
:102C1E00F0E0E0937407F093750708950E948B1E01
:102C2E0049F5AEE7B7E00E948D1CA0917F07AA235D
:102C3E000AF5E0917C07F0917D07309789F4E1E089
:102C4E00F0E0E0938407F09385070E94A81E0E948F
:102C5E00ED1CE0937C07F0937D070E94281F06C0B1
:102C6E00ACE7B7E00E948D1CEBE3F0E0E0937E074B
:102C7E00F0937F0708950E948B1E49F5A8E8B7E0F0
:102C8E000E948D1CA0918907AA230AF5E091860760
:102C9E00F0918707309789F4E1E0F0E0E0938E073A
:102CAE00F0938F070E94A81E0E94FF1CE0938607D8
:102CBE00F09387070E942D1F06C0A6E8B7E00E947A
:102CCE008D1CEBE3F0E0E0938807F09389070895FD
:102CDE000E948B1E49F5A2E9B7E00E948D1CA091BF
:102CEE009307AA230AF5E0919007F0919107309788
:102CFE0089F4E1E0F0E0E0939807F09399070E94E1
:102D0E00A81E0E94111DE0939007F09391070E9458
:102D1E00321F06C0A0E9B7E00E948D1CEBE3F0E085
:102D2E00E0939207F093930708950E948B1E49F546
:102D3E00ACE9B7E00E948D1CA0919D07AA230AF56D
:102D4E00E0919A07F0919B07309789F4E1E0F0E06B
:102D5E00E093A207F093A3070E94A81E0E94231DD2
:102D6E00E0939A07F0939B070E94371F06C0AAE9CB
:102D7E00B7E00E948D1CEBE3F0E0E0939C07F0932C
:102D8E009D0708950E948B1E49F5A6EAB7E00E94A2
:102D9E008D1CA091A707AA230AF5E091A407F09134
:102DAE00A507309789F4E1E0F0E0E093AC07F093EB
:102DBE00AD070E94A81E0E94351DE093A407F09354
:102DCE00A5070E943C1F06C0A4EAB7E00E948D1C16
:102DDE00EBE3F0E0E093A607F093A70708950E94B7
:102DEE008B1E49F5A0EBB7E00E948D1CA091B10798
:102DFE00AA230AF5E091AE07F091AF07309789F458
:102E0E00E1E0F0E0E093B607F093B7070E94A81E4A
:102E1E000E94471DE093AE07F093AF070E94411F3B
:102E2E0006C0AEEAB7E00E948D1CEBE3F0E0E09343
:102E3E00B007F093B10708950E948B1E49F5AAEBD7
:102E4E00B7E00E948D1CA091BB07AA230AF5E09162
:102E5E00B807F091B907309789F4E1E0F0E0E0931C
:102E6E00C007F093C1070E94A81E0E94591DE0934F
:102E7E00B807F093B9070E94461F06C0A8EBB7E04B
:102E8E000E948D1CEBE3F0E0E093BA07F093BB07D2
:102E9E0008950E948B1E49F5A4ECB7E00E948D1C8C
:102EAE00A091C507AA230AF5E091C207F091C307C6
:102EBE00309789F4E1E0F0E0E093CA07F093CB0796
:102ECE000E94A81E0E946B1DE093C207F093C307D9
:102EDE000E944B1F06C0A2ECB7E00E948D1CEBE3D4
:102EEE00F0E0E093C407F093C50708950E948B1E8F
:102EFE0049F5AEECB7E00E948D1CA091CF07AA2336
:102F0E000AF5E091CC07F091CD07309789F4E1E016
:102F1E00F0E0E093D407F093D5070E94A81E0E941C
:102F2E007D1DE093CC07F093CD070E94501F06C085
:102F3E00ACECB7E00E948D1CEBE3F0E0E093CE0723
:102F4E00F093CF0708950E948B1E49F5A8EDB7E0C8
:102F5E000E948D1CA091D907AA230AF5E091D607ED
:102F6E00F091D707309789F4E1E0F0E0E093DE07C7
:102F7E00F093DF070E94A81E0E948F1DE093D607D4
:102F8E00F093D7070E94551F06C0A6EDB7E00E942A
:102F9E008D1CEBE3F0E0E093D807F093D90708958A
:102FAE000E948B1E49F5A2EEB7E00E948D1CA091E7
:102FBE00E307AA230AF5E091E007F091E1073097C5
:102FCE0089F4E1E0F0E0E093E807F093E9070E946E
:102FDE00A81E0E94A11DE093E007F093E1070E9456
:102FEE005A1F06C0A0EEB7E00E948D1CEBE3F0E086
:102FFE00E093E207F093E30708950E948B1E49F5D4
:10300E00ACEEB7E00E948D1CA091ED07AA230AF545
:10301E00E091EA07F091EB07309789F4E1E0F0E0F8
:10302E00E093F207F093F3070E94A81E0E94B31DCF
:10303E00E093EA07F093EB070E945F1F06C0AAEE2B
:10304E00B7E00E948D1CEBE3F0E0E093EC07F09309
:10305E00ED0708950E948B1E49F5A6EFB7E00E947A
:10306E008D1CA091F707AA230AF5E091F407F091C1
:10307E00F507309789F4E1E0F0E0E093FC07F09378
:10308E00FD070E94A81E0E94C51DE093F407F09351
:10309E00F5070E94641F06C0A4EFB7E00E948D1CC6
:1030AE00EBE3F0E0E093F607F093F70708950E9444
:1030BE008B1E49F5A0E0B8E00E948D1CA09101087E
:1030CE00AA230AF5E091FE07F091FF07309789F4E5
:1030DE00E1E0F0E0E0930608F09307080E94A81ED6
:1030EE000E94D71DE093FE07F093FF070E94691F11
:1030FE0006C0AEEFB7E00E948D1CEBE3F0E0E0936C
:10310E000008F093010808950E948B1E49F5AAE06D
:10311E00B8E00E948D1CA0910B08AA230AF5E0913D
:10312E000808F0910908309789F4E1E0F0E0E093A7
:10313E001008F09311080E94A81E0E94E91DE0934A
:10314E000808F09309080E946E1F06C0A8E0B8E0B8
:10315E000E948D1CEBE3F0E0E0930A08F0930B085D
:10316E0008950E948B1E49F5A4E1B8E00E948D1CC3
:10317E00A0911508AA230AF5E0911208F091130800
:10318E00309789F4E1E0F0E0E0931A08F0931B0821
:10319E000E94A81E0E94FB1DE0931208F0931308D4
:1031AE000E94731F06C0A2E1B8E00E948D1CEBE3E3
:1031BE00F0E0E0931408F093150808950E948B1E1A
:1031CE0049F5A8E2B8E00E948D1CA0912908AA2317
:1031DE000AF5E0912608F0912708309789F4E1E08E
:1031EE00F0E0E0932E08F0932F080E94A81E0E9494
:1031FE001F1EE0932608F09327080E947D1F06C02D
:10320E00A6E2B8E00E948D1CEBE3F0E0E093280804
:10321E00F093290808950E948B1E49F5ACE3B8E09F
:10322E000E948D1CA0913D08AA230AF5E0913A0850
:10323E00F0913B08309789F4E1E0F0E0E09342082A
:10324E00F09343080E94A81E0E94431EE0933A0882
:10325E00F0933B080E94871F06C0AAE3B8E00E94C5
:10326E008D1CEBE3F0E0E0933C08F0933D080895ED
:10327E000E948B1E49F5A6E4B8E00E948D1CA09119
:10328E004708AA230AF5E0914408F09145083097C3
:10329E0089F4E1E0F0E0E0934C08F0934D080E94D1
:1032AE00A81E0E94551EE0934408F09345080E9404
:1032BE008C1F06C0A4E4B8E00E948D1CEBE3F0E086
:1032CE00E0934608F093470808950E948B1E49F537
:1032DE00AEE1B8E00E948D1CA0911F08AA230AF54A
:1032EE00E0911C08F0911D08309789F4E1E0F0E0C0
:1032FE00E0932408F09325080E94A81E0E940D1E3C
:10330E00E0931C08F0931D080E94781F06C0ACE1E4
:10331E00B8E00E948D1CEBE3F0E0E0931E08F09302
:10332E001F0808950E948B1E49F5A2E3B8E00E9483
:10333E008D1CA0913308AA230AF5E0913008F09174
:10334E003108309789F4E1E0F0E0E0933808F0932B
:10335E0039080E94A81E0E94311EE0933008F09397
:10336E0031080E94821F06C0A0E3B8E00E948D1CA7
:10337E00EBE3F0E0E0933208F093330808950E94F7
:10338E008B1E49F5A0E5B8E00E948D1CA091510856
:10339E00AA230AF5E0914E08F0914F08309789F470
:1033AE00E1E0F0E0E0935608F09357080E94A81E63
:1033BE000E94671EE0934E08F0934F080E94911FE3
:1033CE0006C0AEE4B8E00E948D1CEBE3F0E0E093A3
:1033DE005008F093510808950E948B1E49F5AAE5F6
:1033EE00B8E00E948D1CA0915B08AA230AF5E0911B
:1033FE005808F0915908309789F4E1E0F0E0E09335
:10340E006008F09361080E94A81E0E94791EE09346
:10341E005808F09359080E94961F06C0A8E5B8E018
:10342E000E948D1CEBE3F0E0E0935A08F0935B08EA
:10343E000895AA93E881E07111F0C39A01C0C39870
:10344E00E881E07211F0C49A01C0C498E881E0747A
:10345E0011F0C59A01C0C598E881E07811F0C69ABE
:10346E0001C0C6988BE18A95F1F7C29A8BE18A95D5
:10347E00F1F7C2988BE18A95F1F78BC0AA93A881D8
:10348E00D8DFE881E295E883A881D3DF88EC90E06D
:10349E000197F1F77EC0AA93E881F0E0EE59F74F5D
:1034AE00E081A981AE0FEADFE981E0936608E88149
:1034BE00E093670822960895A2E00E949B1FACE05D
:1034CE00DDDFA1E00E949B1FE0E0E0936708E09340
:1034DE0066080895AA93A881AA3031F0E091680891
:1034EE00A0916608AE1760F0E0E0EA93A09167083D
:1034FE00AF5FA0936708CFDFA881AA3009F449C057
:10350E00E0916608EF5FE0936608C09AA881B6DF87
:10351E00C0983FC0BA93AA931A93A981BA81ED912C
:10352E00A983BA831E2FE03019F0A12FD3DFF5CF78
:10353E00188123960895AA93BB9ABC9ABD9ABE9AF7
:10354E00BA9AB89AB99AC298C098C198E881E0938D
:10355E006808E058E0936408E881E054E093650859
:10356E00A4E1B0E00E94D51F0E94A11F0E94A11FDE
:10357E000E94A11FA0E25DDF80E991E00197F1F7C3
:10358E00A8E27CDFA4E07ADFA5E878DFA6E076DFAC
:10359E0093DF21960895BA93AA931A930A93AA8158
:1035AE00BB8112960E94EC1F309729F1AA81BB8134
:1035BE0014960E94EC1F8F01309761F00230E0E00C
:1035CE001E0780F0F80131978F01AA81BB811496F6
:1035DE00ED93FC93AA81BB8112960E940E1F319728
:1035EE00AC81A083AA81BB810E94EC1FFF2312F045
:1035FE000E940E1F06C0AA81BB81EFEFFFEFED9375
:10360E00FC931981088125960895BA93AA9326975B
:10361E000E94F91F10E0AC85BD85E0E0F0E0ED936F
:10362E00FC93EA89FB893196EA8BFB8B3197E49107
:10363E002E2FE03009F415C1E12FE03039F4253298
:10364E0011F411E002C00E94A91F0AC1E130A9F4D1
:10365E00253219F40E94A91F02C112E040E000E0D9
:10366E002D3211F401E0FCC02B3211F44BE2F8C004
:10367E00203211F440E2F4C002C0E23039F450E0DE
:10368E0013E0203311F40068EBC003C0E33009F0FF
:10369E00E7C0203310F02A3308F007C0AAE05A9F83
:1036AE00502DE22FE0535E0FDBC0E22FE33649F4DC
:1036BE000E94B01FE889F989A481AA930E94B61FBF
:1036CE00CEC0E33741F40E94B01F0E94BC1F0E947F
:1036DE00741C1E2F0AC0E03761F40E94B01F0E94B6
:1036EE00BC1F0E94801C1E2F086002600F7730E006
:1036FE0034C0E43611F0E93611F4046002C0E53747
:10370E0031F4ECE8F0E0EE83FF8315E00CC0E83511
:10371E0011F4086003C0E83709F0A1C0E6E9F0E053
:10372E00EE83FF8314E002FF14C00E94B01F0E94BC
:10373E00C61FAB85AA233AF4EA85FB850E94E31FD8
:10374E00EA87FB874DE2403011F01F5F01C00B7F0F
:10375E0004C00E94B01F0E94C61F00FD11C01517A5
:10376E0078F407FF08C002FF04C00B7F242F11500E
:10377E0001C020E301C020E20E94A91F5150EFCFEB
:10378E00312F01FF17C03030A1F003FF06C0EE81CC
:10379E00FF812591EE83FF8305C0AE81BF812D9100
:1037AE00AE83BF830E94A91F503009F05150315093
:1037BE00EACF4BC020E3EE81FF810E94F01FE88725
:1037CE00F987EE81FF813296EE83FF83E885F985D6
:1037DE00AA85BB85AE17BF0750F02F5FA885B985A8
:1037EE00EA85FB85EA1BFB0BEA87FB87EFCF2A33C3
:1037FE0028F003FF02C0295F01C0295D04FD1AC035
:10380E00213320F4A885B985119709F409C05317FF
:10381E0010F000FF01C013C020E207FF0BC020E331
:10382E00006102FF07C00B7F4A930E94B61F503003
:10383E0009F051500E94A91F503009F051503150DB
:10384E00A885B985129708F0B5CF00FF08C0503093
:10385E0031F05150E0E2EA930E94B61FF8CF10E02B
:10386E00E0CEAC85BD850E94EC1F0E9400206496C0
:10387E000895FF92F82E26970E94FB1F0E94CE1FDE
:10388E00309719F4EFEFFFEF23C0DE0116960E947A
:10389E00DF1F8D010E94CE1FEE83FF83E0E0E887DD
:1038AE00E987DE011A960E94DF1F0E94EC1FFA9331
:1038BE00EA931A930A93E2EDFAE1FA93EA93DE01A0
:1038CE001A96A3DE9F01AE81BF81E0E0EC93F90171
:1038DE000E9402202A96FF900895BA93AA93A99166
:1038EE00B991EE27FF276D91662311F03196FBCF2C
:1038FE000895BA93AA93AA27BB27E991F991059047
:10390E00002011F01196FBCFFD010895ED91FD9170
:10391E003197FE93EE930895E0914E07F0914F0785
:10392E000895E0934A07F0934B07E0915007F0910A
:10393E005107E0934C07F0934D070895E091580717
:10394E00F09159070895E0935407F0935507E091CD
:10395E005A07F0915B07E0935607F09357070895C7
:10396E00E0916207F09163070895E0935E07F0938C
:10397E005F07E0916407F0916507E0936007F093AD
:10398E0061070895E0916C07F0916D070895E0933B
:10399E006807F0936907E0916E07F0916F07E09367
:1039AE006A07F0936B070895E0917607F091770719
:1039BE000895E0937207F0937307E0917807F09102
:1039CE007907E0937407F09375070895E0918007E7
:1039DE00F09181070895E0937C07F0937D07E091C5
:1039EE008207F0918307E0937E07F0937F07089597
:1039FE00E0918A07F0918B070895E0938607F09384
:103A0E008707E0918C07F0918D07E0938807F0937C
:103A1E0089070895E0919407F09195070895E09332
:103A2E009007F0939107E0919607F0919707E09336
:103A3E009207F09393070895E0919E07F0919F07E8
:103A4E000895E0939A07F0939B07E091A007F091F9
:103A5E00A107E0939C07F0939D070895E091A807B6
:103A6E00F091A9070895E093A407F093A507E091BC
:103A7E00AA07F091AB07E093A607F093A707089566
:103A8E00E091B207F091B3070895E093AE07F0937B
:103A9E00AF07E091B407F091B507E093B007F0934C
:103AAE00B1070895E091BC07F091BD070895E0932A
:103ABE00B807F093B907E091BE07F091BF07E09306
:103ACE00BA07F093BB070895E091C607F091C707B8
:103ADE000895E093C207F093C307E091C807F091F1
:103AEE00C907E093C407F093C5070895E091D00786
:103AFE00F091D1070895E093CC07F093CD07E091B4
:103B0E00D207F091D307E093CE07F093CF07089535
:103B1E00E091DA07F091DB070895E093D607F09372
:103B2E00D707E091DC07F091DD07E093D807F0931B
:103B3E00D9070895E091E407F091E5070895E09321
:103B4E00E007F093E107E091E607F091E707E093D5
:103B5E00E207F093E3070895E091EE07F091EF0787
:103B6E000895E093EA07F093EB07E091F007F091E8
:103B7E00F107E093EC07F093ED070895E091F80755
:103B8E00F091F9070895E093F407F093F507E091AB
:103B9E00FA07F091FB07E093F607F093F707089505
:103BAE00E0910208F09103080895E093FE07F09368
:103BBE00FF07E0910408F0910508E0930008F093E8
:103BCE0001080895E0910C08F0910D080895E09316
:103BDE000808F0930908E0910E08F0910F08E093A1
:103BEE000A08F0930B080895E0911608F091170853
:103BFE000895E0931208F0931308E0911808F091DD
:103C0E001908E0931408F09315080895E091200820
:103C1E00F09121080895E0931C08F0931D08E0919F
:103C2E002208F0912308E0931E08F0931F080895D0
:103C3E00E0912A08F0912B080895E0932608F0935E
:103C4E002708E0912C08F0912D08E0932808F093B6
:103C5E0029080895E0913408F09135080895E0930D
:103C6E003008F0933108E0913608F0913708E09370
:103C7E003208F09333080895E0913E08F0913F0822
:103C8E000895E0933A08F0933B08E0914008F091D4
:103C9E004108E0933C08F0933D080895E0914808F0
:103CAE00F09149080895E0934408F0934508E09197
:103CBE004A08F0914B08E0934608F09347080895A0
:103CCE00E0915208F09153080895E0934E08F09356
:103CDE004F08E0915408F0915508E0935008F09386
:103CEE0051080895E0915C08F0915D080895E09305
:103CFE005808F0935908E0915E08F0915F08E09340
:103D0E005A08F0935B080895A0912507B0912607F5
:103D1E0011970895E0912B07F0912C07E093290756
:103D2E00F0932A07E2E0F0E0E0932707F0932807EC
:103D3E000895E0936200EECFE0932707F0932807F3
:103D4E000895E1E0F0E0F8CFE0E0E093620008953E
:103D5E00AAE0B0E00C94D51FE0E0E0932F07E093CB
:103D6E00300708950E94631AE0E0EA93A0E00C94F5
:103D7E00521A0E94911AE0E0EA93A1E00C94521AB2
:103D8E00E1E3F7E0FA93EA930895662777270E9416
:103D9E00F41F08950E94E71F0E94F41F0895E091FA
:103DAE005007F0915107089588E00E94401C2C9610
:103DBE00A1E3B7E0DECFE1E4F7E0FA93EA93EFE1B7
:103DCE00F1E0FA93EA930895E0912D07F0912E0712
:103DDE00E1CF8CE00E94401C6096A1E4B7E00C9409
:103DEE00911AA4E1B0E00E94D51FAFE2B7E0ED91C9
:103DFE00FD913196FE93EE930895A0912F07B09109
:103E0E0030070895E8E0EA93A1E00C94521AED9180
:103E1E00FD913196FE93EE930895E0915A07F0913D
:103E2E005B070895E0916407F09165070895E091AE
:103E3E006E07F0916F070895E0917807F09179077A
:103E4E000895E0918207F09183070895E0918C0721
:103E5E00F0918D070895E0919607F09197070895D8
:103E6E00E091A007F091A1070895E091AA07F091C3
:103E7E00AB070895E091B407F091B5070895E0916E
:103E8E00BE07F091BF070895E091C807F091C907EA
:103E9E000895E091D207F091D3070895E091DC07E1
:103EAE00F091DD070895E091E607F091E707089598
:103EBE00E091F007F091F1070895E091FA07F09183
:103ECE00FB070895E0910408F09105080895E0912C
:103EDE000E08F0910F080895E0911808F091190856
:103EEE000895E0912208F09123080895E0912C089E
:103EFE00F0912D080895E0913608F0913708089555
:103F0E00E0914008F09141080895E0914A08F0913F
:103F1E004B080895E0915408F09155080895E091EA
:103F2E005E08F0915F0808950E94451AA3E0B0E084
:103F3E000C94D51FA0E30E94201A80E991E001970E
:103F4E00F1F708952A93AD85BE85EF85F889099519
:103F5E000895E889F9893497E88BF98B0895AD8532
:103F6E00BE85EF85F88909950895A889B9891496B3
:103F7E000E94EC1FEE83FF83AE81BF810895A88956
:103F8E00B98914960E94EC1FEA87FB870895DE011B
:103F9E001C960E94DF1F0E94EC1F0895109639F0A8
:103FAE00A89580EA9FE00197F1F71197C9F7089558
:103FBE000024AF0DB01D0895F195E195F0400895E0
:103FCE006F2F660F660B762F0895ED91FC9111976A
:103FDE0008950590F491E02D08957A936A93FA93DB
:103FEE00EA9308955A934A933A932A931A930A930B
:103FFE0008955D814C813B812A8119810881089544
:00000001FF
